:020000040800F2
:10000000000002201D5D00089D0900089F090008EE
:10001000A1090008A3090008A509000800000000C4
:10002000000000000000000000000000A709000818
:10003000A909000800000000AB090008AD0900088C
:100040006D5D00086D5D00086D5D00086D5D000868
:100050006D5D00086D5D00086D5D00086D5D000858
:100060006D5D00086D5D00086D5D00086D5D000848
:100070006D5D00086D5D00086D5D00086D5D000838
:100080006D5D00086D5D00086D5D00086D5D000828
:100090006D5D00086D5D00086D5D00086D5D000818
:1000A0006D5D00086D5D00086D5D00086D5D000808
:1000B0006D5D00086D5D00086D5D00086D5D0008F8
:1000C0006D5D00086D5D00086D5D00086D5D0008E8
:1000D0006D5D00086D5D00086D5D00086D5D0008D8
:1000E0006D5D00086D5D00086D5D00086D5D0008C8
:1000F0006D5D00086D5D00086D5D00086D5D0008B8
:100100006D5D00086D5D00086D5D00086D5D0008A7
:100110006D5D00086D5D00086D5D00086D5D000897
:100120006D5D00086D5D00086D5D00086D5D000887
:100130006D5D000800000000000000006D5D00081B
:100140006D5D00086D5D00086D5D0008B509000873
:100150006D5D00086D5D00086D5D00086D5D000857
:100160006D5D00086D5D00086D5D00086D5D000847
:100170006D5D00086D5D00080000000000000000DB
:080180006D5D00086D5D0008D3
:1001880010B5054C237833B9044B13B10448AFF3C9
:1001980000800123237010BDF8000020000000003B
:1001A800C85D000808B5034B1BB103490348AFF30A
:1001B800008008BD00000000FC000020C85D0008A9
:1001C80053B94AB9002908BF00281CBF4FF0FF31B6
:1001D8004FF0FF3000F074B9ADF1080C6DE904CEB2
:1001E80000F006F8DDF804E0DDE9022304B070470A
:1001F8002DE9F047089D04468E46002B4DD18A42D2
:10020800944669D9B2FA82F252B101FA02F3C2F104
:10021800200120FA01F10CFA02FC41EA030E944095
:100228004FEA1C48210CBEFBF8F61FFA8CF708FBB6
:1002380016E341EA034306FB07F199420AD91CEB8E
:10024800030306F1FF3080F01F81994240F21C81C0
:10025800023E63445B1AA4B2B3FBF8F008FB103308
:1002680044EA034400FB07F7A7420AD91CEB04043D
:1002780000F1FF3380F00A81A74240F2078164440D
:10028800023840EA0640E41B00261DB1D440002392
:10029800C5E900433146BDE8F0878B4209D9002DF6
:1002A80000F0EF800026C5E9000130463146BDE880
:1002B800F087B3FA83F6002E4AD18B4202D38242EA
:1002C80000F2F980841A61EB030301209E46002D99
:1002D800E0D0C5E9004EDDE702B9FFDEB2FA82F2EE
:1002E800002A40F09280A1EB0C014FEA1C471FFA4C
:1002F8008CFE0126200CB1FBF7F307FB131140EA33
:1003080001410EFB03F0884208D91CEB010103F1FF
:10031800FF3802D2884200F2CB804346091AA4B2C1
:10032800B1FBF7F007FB101144EA01440EFB00FE95
:10033800A64508D91CEB040400F1FF3102D2A645FA
:1003480000F2BB800846A4EB0E0440EA03409CE799
:10035800C6F12007B34022FA07FC4CEA030C20FA46
:1003680007F401FA06F31C43F9404FEA1C4900FA66
:1003780006F3B1FBF9F8200C1FFA8CFE09FB1811E3
:1003880040EA014108FB0EF0884202FA06F20BD956
:100398001CEB010108F1FF3A80F08880884240F2A6
:1003A8008580A8F102086144091AA4B2B1FBF9F0EA
:1003B80009FB101144EA014100FB0EFE8E4508D9E5
:1003C8001CEB010100F1FF346CD28E456AD902386A
:1003D800614440EA0840A0FB0294A1EB0E01A1424F
:1003E800C846A64656D353D05DB1B3EB080261EBBD
:1003F8000E0101FA07F722FA06F3F1401F43C5E997
:10040800007100263146BDE8F087C2F12003D840CC
:100418000CFA02FC21FA03F3914001434FEA1C470E
:100428001FFA8CFEB3FBF7F007FB10360B0C43EA00
:10043800064300FB0EF69E4204FA02F408D91CEBB0
:10044800030300F1FF382FD29E422DD902386344AE
:100458009B1B89B2B3FBF7F607FB163341EA03414E
:1004680006FB0EF38B4208D91CEB010106F1FF389D
:1004780016D28B4214D9023E6144C91A46EA004694
:1004880038E72E46284605E70646E3E61846F8E626
:100498004B45A9D2B9EB020864EB0C0E0138A3E76F
:1004A8004646EAE7204694E74046D1E7D0467BE750
:1004B800023B614432E7304609E76444023842E7C8
:1004C800704700BF10B58AB00024059406940794BD
:1004D800089409940094254B1A6B42F004021A639D
:1004E8001A6B02F004020092009A01941A6B42F00F
:1004F80080021A631A6B02F080020192019A029438
:100508001A6B42F001021A631A6B02F0010202929E
:10051800029A03941A6B42F002021A631A6B02F0F1
:1005280002020392039A04941A6B42F008021A63B7
:100538001B6B03F008030493049B8023059305A910
:100548000B4802F019FE102305930694079405A999
:10055800084802F011FE012305930694079405A9A3
:10056800054802F009FE0AB010BD00BF003802407D
:1005780000000240000802400004024072B6FEE794
:1005880008B50A480A4B03600A4B4360002383609E
:10059800C3604FF48042026143618361C3610362B7
:1005A80002F0AEFF00B908BDFFF7E8FF1401002014
:1005B80000540040A086010008B50D480D4B0360AB
:1005C800002343608360C3604FF4006202614361AB
:1005D800836103F03BFE30B94FF40061044803F037
:1005E80051FE10B908BDFFF7C9FFFFF7C7FF00BFED
:1005F80068010020002C014000B58FB000230A9349
:100608000B930C930D93089309930193029303930F
:1006180004930593069307931E484FF080420260A7
:1006280042F2CF02426083606322C2600361836149
:1006380003F0B2FF20BB4FF480530A930AA9154870
:1006480004F010F9F0B9134803F0FEFFE0B90023F5
:100658000893099308A90F4804F014FAB0B9602365
:100668000193002202920392059201A9094804F01D
:100678007EF868B9074800F07FFA0FB05DF804FB10
:10068800FFF77CFFFFF77AFFFFF778FFFFF776FFAA
:10069800FFF774FFEC01002000B58FB000230A9328
:1006A8000B930C930D93089309930193029303936F
:1006B80004930593069307931E481F4A026042F26B
:1006C800CF02426083606322C2600361836103F0EA
:1006D80063FF20BB4FF480530A930AA9154804F01E
:1006E800C1F8F0B9134803F0AFFFE0B9002308934D
:1006F800099308A90F4804F0C5F9B0B9602301931C
:10070800002202920392059201A90A4804F02FF8E8
:1007180068B9084800F030FA0FB05DF804FBFFF73D
:100728002DFFFFF72BFFFFF729FFFFF727FFFFF745
:1007380025FF00BF340200200004004000B58FB040
:1007480000230A930B930C930D9308930993019339
:100758000293039304930593069307933048314A11
:10076800026042F2CF02426083606322C26003618A
:10077800836103F011FF002840D14FF480530A939E
:100788000AA9274804F06EF8002839D1244803F054
:100798005BFF002836D1224803F02AFF002833D116
:1007A80000230893099308A91D4804F06BF968BB56
:1007B80060230193002202920392059201A918482E
:1007C80003F0D5FF20BB04220DEB0201144803F00F
:1007D800CEFFF8B9082201A9114803F0C8FFD8B91B
:1007E800002301930C2201A90D4803F091FFA8B939
:1007F8000B4800F0C1F90FB05DF804FBFFF7BEFE2F
:10080800FFF7BCFEFFF7BAFEFFF7B8FEFFF7B6FE2C
:10081800FFF7B4FEFFF7B2FEFFF7B0FEFFF7AEFE3C
:100828007C020020000C004008B50A480A4B03600F
:100838004FF4E133436000238360C36003610C22FB
:1008480042618361C36104F0EBF900B908BDFFF7A9
:1008580095FE00BFC40200200010014008B50A48F8
:100868000A4B03604FF4E133436000238360C360A5
:1008780003610C2242618361C36104F0D1F900B9BC
:1008880008BDFFF77BFE00BF0803002000480040BA
:1008980000B595B03022002108A805F089FA002398
:1008A800039304930593069307930193204A116CCD
:1008B80041F080511164126C02F080520192019A49
:1008C80002931C4B1A6842F480421A601B6803F4B6
:1008D80080430293029B012308934FF480330993CA
:1008E80002230E934FF480020F9208221092A8223E
:1008F800119212930723139308A802F007F998B9E5
:100908000F23039302230493002305934FF4A0536A
:1009180006934FF480530793052103A802F056FB72
:1009280020B915B05DF804FBFFF728FEFFF726FE97
:10093800003802400070004010B502F0A1FDFFF73A
:10094800A7FFFFF7BFFDFFF71BFEFFF735FEFFF719
:1009580053FEFFF7A1FEFFF7F1FEFFF765FFFFF774
:100968007DFF00F0D1F90021094804F009F80024BE
:1009780002E0642002F0B0FD054B1B68C4F164027C
:100988005A630534E4B2642CF3D90024F1E700BFBC
:1009980034020020FEE7FEE7FEE7FEE7FEE77047C9
:1009A8007047704708B502F085FD08BD08B50248D4
:1009B80000F04AFF08BD00BF2818002082B00021BF
:1009C80000910B4B5A6C42F480425A645A6C02F400
:1009D80080420092009A01911A6C42F080521A6487
:1009E8001B6C03F080530193019B02B0704700BF5A
:1009F8000038024030B589B000230393049305936F
:100A0800069307930268144B9A4201D009B030BD8F
:100A180000250195114C236B43F002032363236BDC
:100A280003F002030193019BC02303931223049351
:100A3800032306930423079303A9094802F09CFBA8
:100A48000295236C43F400132364236C03F400130E
:100A58000293029BDAE700BF0054004000380240CE
:100A680000040240F0B589B0002303930493059372
:100A7800069307930268204B9A4201D009B0F0BD53
:100A88000024009403F586335A6C42F400625A64D9
:100A98005A6C02F400620092009A01941A6B42F0B8
:100AA80004021A631A6B02F004020192019A02947A
:100AB8001A6B42F008021A631B6B03F008030293D7
:100AC800029B4FF4F85303930227049703260696D4
:100AD8000C2507950DEB0501084802F04DFB042392
:100AE800039304970594069607950DEB05010448B2
:100AF80002F042FBC2E700BF002C014000080240A0
:100B0800000C024084B00368B3F1804F07D0174A45
:100B1800934211D0164A93421BD004B07047002369
:100B28000193144B1A6C42F001021A641B6C03F017
:100B380001030193019BF0E7002302930D4B1A6C0C
:100B480042F002021A641B6C03F002030293029B38
:100B5800E3E700230393074B1A6C42F008021A6478
:100B68001B6C03F008030393039BD6E700040040C3
:100B7800000C00400038024000B589B00023039300
:100B880004930593069307930368B3F1804F08D045
:100B9800264A93421DD0264A934230D009B05DF8C8
:100BA80004FB00230093234B1A6B42F001021A63E3
:100BB8001B6B03F001030093009B4FF40043039366
:100BC800022304930123079303A91B4802F0D4FAD4
:100BD800E4E700230193174B1A6B42F004021A63EF
:100BE8001B6B03F004030193019B4023039302232F
:100BF8000493079303A9114802F0BEFACEE7002335
:100C080002930C4B1A6B42F001021A631B6B03F040
:100C180001030293029B0F23039302230493079378
:100C280003A9054802F0A8FAB8E700BF000400408D
:100C3800000C00400038024000000240000802405A
:100C480000B58BB000230593069307930893099387
:100C58000368284A934205D0274A934226D00BB00E
:100C68005DF804FB00210191244B5A6C42F01002FC
:100C78005A645A6C02F010020192019A02911A6B9E
:100C880042F001021A631B6B03F001030293029BFB
:100C98004FF4C063059302230693032308930723A5
:100CA800099305A9164802F067FAD8E700210391CD
:100CB800124B1A6C42F480221A641A6C02F48022D5
:100CC8000392039A04911A6B42F002021A631B6B97
:100CD80003F002030493049B4FF44063059302233B
:100CE8000693032308930723099305A9054802F0EF
:100CF80043FAB4E7001001400048004000380240C1
:100D0800000002400004024008B500220F491048C4
:100D180003F0C0FF70B90F490D4803F0D2FF60B966
:100D28000D490B4804F0B4FF50B9094803F0E3FF3C
:100D380048B908BDFFF722FCEDE7FFF71FFCEFE716
:100D4800FFF71CFCF1E7FFF719FCF2E700000020B1
:100D58004C030020700000205000002012230B805C
:100D6800004870471C00002004230B80004870478F
:100D780030000020002393421ED200B510E00CF191
:100D8800370C01F813C000014FEA430C0CF1010CB9
:100D98004FF0000E01F80CE00133DBB2934209D2A8
:100DA8004FEA107CB0F1204FE9D20CF1300C01F879
:100DB80013C0E8E75DF804FB7047000038B50B4B3B
:100DC800D3F8100AD3F8144AD3F8183AC01800D147
:100DD80038BD074D0822A91CFFF7CCFF042205F1F6
:100DE80012012046FFF7C6FFF2E700BF0070FF1FA1
:100DF8003400002008B51A230B80FFF7DFFF0148F5
:100E080008BD00BF3400002008B50A4628B90549C6
:100E1800054804F0BCFC034808BD0249024804F038
:100E2800B6FCF8E728060020E05D000810B50A4681
:100E3800034C2146034804F0AAFC204610BD00BF1D
:100E480028060020F85D000808B50A4628B90549B3
:100E5800054804F09CFC034808BD0249024804F018
:100E680096FCF8E7280600200C5E000808B50A463C
:100E780028B90549054804F08AFC034808BD024919
:100E8800024804F084FCF8E728060020185E0008F1
:100E980000207047002070470020704710B50146B9
:100EA800044C204604F00DFF204604F016FF0020F5
:100EB80010BD00BF4C03002010B5064C00220649A7
:100EC800204604F0F0FE0549204604F0FAFE002012
:100ED80010BD00BF4C030020281000202808002067
:100EE80030B589B0002303930493059306930793C1
:100EF8000368B3F1A04F01D009B030BD00250195BA
:100F0800164C236B43F001032363236B03F00103A7
:100F18000193019B4FF4C0530393022304930323CB
:100F280006930A23079303A90D4802F025F9636B7A
:100F380043F0800363630295636C43F48043636406
:100F4800636C03F480430293029B2A46294643209C
:100F580002F016FA432002F04BFACDE700380240BF
:100F68000000024008B500F2C441D0F8080503F0BB
:100F7800D8FE08BD08B501EBC10300EB8303D3F825
:100F88008C22D0F8080503F099FF08BD08B501EBDD
:100F9800C10300EB8303DA6CD0F8080503F0F1FF16
:100FA80008BD08B5D0F8080503F033FF08BD10B533
:100FB8000446C3683BB1022B01D1012104E0FFF7CD
:100FC800DDFA012100E00021D4F8080503F007FF4D
:100FD800D4F8080503F0D1FE10BD000010B5044692
:100FE800D0F8080503F0FEFE2268D2F8003E43F070
:100FF8000103C2F8003E236A23B1034A136943F090
:101008000603136110BD00BF00ED00E008B5D0F87D
:10101800080503F0F1FE08BD08B5D0F8080503F08F
:1010280020FF08BD08B5D0F8080503F003FF08BD88
:1010380008B5D0F8080503F02BFF08BD08B5D0F8AF
:10104800080503F027FF08BD02780AB100207047A1
:1010580010B503461548C0F80835C3F8C8024FF064
:10106800A0430360042343600222C260002303619B
:101078008261C36103624362C362036300F0F0F8F4
:1010880080B90A4C8021204600F0E6FE402200216B
:10109800204600F0BBFE80220121204600F0B6FE6B
:1010A800002010BDFFF76AFAEBE700BF2818002000
:1010B800D0F8C83211F0800F08D101F07F0101EBA0
:1010C800C10103EB810191F87E02704701F07F01B5
:1010D80001EBC10103EB810191F83E00704708B5AF
:1010E800D0F8C80200F0DFFA08BD000000487047D9
:1010F800341D00207047032805D8DFE800F00504F8
:101108000205012070470320704708B5D0F8C802CF
:1011180000F03DF9FFF7EFFF08BD08B594461A4601
:101128006346D0F8C80200F011FAFFF7E4FF08BDE3
:1011380008B5D0F8C80200F04EFAFFF7DCFF08BD8A
:1011480008B5D0F8C80200F0E6FAFFF7D4FF08BDEA
:1011580008B5D0F8C80200F022FBFFF7CCFF08BDA5
:1011680008B5D0F8C80200F0DDF9FFF7C4FF08BDE4
:1011780008B5D0F8C80200F09FFAFFF7BCFF08BD19
:1011880008B5D0F8C80200F05FFAFFF7B4FF08BD51
:101198002DE9F04383B0D0F8008001EBC10300EBE8
:1011A8008303DA6D5B6D9A4254D807460C469B1A46
:1011B80001EBC10200EB8202926C9A4200D31A46FC
:1011C80002F103094FEA990915E006F103094FEA0C
:1011D800990904EBC40507EB8505E96C3B7C009392
:1011E800B3B2E2B2404601F008FAEB6C3344EB6468
:1011F800EB6D3344EB6508EB441303F510639B690F
:101208009BB24B4512D304EBC40207EB8202D16DAB
:10121800536D99420AD24BB15B1A04EBC40207EB37
:101228008202966C9E42D0D31E46CEE704EBC400E1
:1012380007EB80077A6DFB6D9A420FD804F00F0414
:101248000123A340D8F8344824EA0304C8F83448F2
:10125800002000E0012003B0BDE8F0830020FAE799
:1012680070B58AB0002800F090800546046890F8B0
:10127800BD343BB3032385F8BD34E36B13F4807F9F
:1012880001D100232B61286800F0D2FE2C4654F8C7
:10129800106BEC460FCCACE80F000FCCACE80F009D
:1012A80094E803008CE803002B1D0ECB304600F0B9
:1012B80001FE044658B1022385F8BD3401242046B6
:1012C8000AB070BD80F8BC34FFF70AFED2E70021EF
:1012D800286801F0A9FB234616E003EBC30205EBDF
:1012E8008202012182F83D1082F83C30A2F8443095
:1012F800002182F840109164D16403EBC30205EB2E
:10130800820251650133DBB269688B42E5D316E08E
:1013180004EBC40305EB8303002283F87D2283F8E2
:101328007C4283F88022C3F88822C3F88C2204EB1D
:10133800C40305EB8303C3F894220134E4B2A14249
:10134800E6D82C4654F8106BEC460FCCACE80F00EE
:101358000FCCACE80F0094E803008CE803002B1DC9
:101368000ECB304600F0C0FE044620B1022385F8BB
:10137800BD340124A3E7002385F83830012385F81C
:10138800BD34286801F00DFB99E7012497E702684E
:1013980090F8BC34012B19D010B50446012380F80D
:1013A800BC34836A012B09D0206800F03BFE20681A
:1013B80001F0E9FA002084F8BC0410BD8369012B10
:1013C800F2D0936B43F480339363EDE702207047C8
:1013D80070B504460D460068066C00EB411303F532
:1013E80030639A682169012911D038498E4256D054
:1013F8003DB905EBC50304EB8303D3F89432002B06
:101408005ED0E9B22046FFF7B5FD002070BD12F0AE
:10141800080F09D02E498E42F7D912F4004FF4D0A4
:101428004FF400429A60F0E712F0200F02D0202219
:101438009A60EAE712F0280FE7D125498E4206D9CB
:1014480012F4004F03D04FF400429A60DDE705EB39
:10145800C50204EB8202D2F898121B69C3F3120387
:10146800CB1AC2F89C327DB905EBC50204EB8202A7
:10147800D2F894226AB105EBC50204EB8202D2F8D5
:101488008C120B44C2F88C32E9B22046FFF772FD89
:10149800BBE704F2C442012101F008FBF4E712F4AF
:1014A800004F03D04FF400429A60AEE712F0200FCD
:1014B80001D020229A60E9B22046FFF75BFDA4E73D
:1014C80004F2C442002101F0F1FA9AE70A31544FBC
:1014D8000A30544F38B5044603681D6C03EB4113BA
:1014E800D3F8081B0E4A954207D903F5306311F467
:1014F800004F02D04FF400429A602046FFF732FDB9
:10150800074B9D4202D92369012B01D0002038BD29
:1015180004F2C4420121206801F0C8FAF6E700BFCE
:101528000A30544F90F8BC34012B0DD010B5044646
:10153800012380F8BC3480F83810006801F013FAF1
:10154800002084F8BC0410BD0220704738B5054659
:101558008C4611F0800F29D101F00F0E0EEBCE044E
:10156800A40004F51E740444211D0EEBCE0E00EBFE
:101578008E0E00208EF87D020CF00F0C81F800C052
:10158800CA600B714A780AB1A1F808C0022B1DD0B5
:1015980095F8BC34012B1CD0012385F8BC3428688D
:1015A80000F07BFE002085F8BC0438BD01F00F0078
:1015B80000EBC001890038312944043100EBC00038
:1015C80005EB8000012480F83D40D5E700234B71EE
:1015D800DEE70220E9E710B504460A4611F0800F5D
:1015E80020D101F00F0000EBC0039B0003F51E7330
:1015F8002344191D00EBC00004EB8000002380F891
:101608007D3202F00F020A7094F8BC34012B19D015
:10161800012384F8BC34206800F08EFE002084F892
:10162800BC0410BD01F00F0000EBC0039B00383371
:101638002344191D00EBC00004EB8000012380F84F
:101648003D30DEE70220ECE710B501F00F0404EBB3
:10165800C401890001F51E710144043104EBC40C76
:1016680000EB8C0CCCF88C22CCF894320023CCF80C
:101678009C328CF87D328CF87C420369012B06D0B1
:1016880064B9DAB2006800F0C7FE002010BD04EBB0
:10169800C40C00EB8C0CCCF89022F1E7DAB20068AD
:1016A80000F0C2FFF1E701F00F0101EBC10100EB0F
:1016B8008101D1F89C02704710B501F00F0404EBCA
:1016C800C401890038310144043104EBC40C00EB37
:1016D8008C0CCCF84C20CCF854300023CCF85C307F
:1016E80001238CF83D308CF83C400369012B06D06F
:1016F80064B9DAB2006800F08FFE002010BD04EB78
:10170800C40C00EB8C0CCCF85020F1E7DAB200687E
:1017180000F08AFFF1E738B501F00F0542689542FD
:1017280039D804460B4611F0800F1FD101EBC101D7
:10173800890001F51E710144043103EBC30300EB7A
:101748008303002283F87D2201238B700D7094F8A7
:10175800BC34012B21D0012384F8BC34206801F06B
:10176800A7F88DB1002084F8BC0438BD05EBC5018D
:10177800890038310144043105EBC50300EB8303CC
:10178800012283F83D20DFE704F2C442217C20686F
:1017980001F08CF9E6E70120E7E70220E5E701F030
:1017A8000F034268934231D810B5044611F0800FF8
:1017B8001ED103EBC301890001F51E7101440431F8
:1017C80003EBC30200EB8202002082F87D020022B4
:1017D8008A700B7094F8BC34012B19D0012384F85B
:1017E800BC34206801F091F8002084F8BC0410BDD6
:1017F80003EBC301890038310144043103EBC30210
:1018080000EB8202012082F83D00E0E701207047EA
:101818000220ECE708B511F0800F0CD101F00F01A0
:1018280001EBC101890001F51E7101440431006812
:1018380000F084FE08BD01F00F0101EBC101890031
:10184800383101440431F2E72DE9F04F83B0044602
:101858000568284601F0E4F810B103B0BDE8F08F40
:101868000646206801F0ABF80028F6D005F50067B9
:10187800BB68C3F30D23C4F8FC34206801F09FF85B
:1018880010F0020F04D02268536903F00203536179
:10189800206801F094F810F0100F13D022689369B3
:1018A80023F010039361D5F8208008F00F09C8F3DE
:1018B8004343022B4BD0062B6FD02268936943F029
:1018C80010039361206801F07AF810F4002F76D1A4
:1018D800206801F074F810F4802F40F0E080206850
:1018E80001F06DF80028C0F26381206801F067F804
:1018F80010F4006F09D0BB6813F0010F40F070813D
:101908002268536903F400635361206801F057F8B3
:1019180010F4805F40F06881206801F050F810F4FE
:10192800005F40F0B581206801F049F810F0080F19
:1019380040F0C681206801F042F810F0800F00F0F6
:10194800D981AB6923F08003AB610126C2E147F678
:10195800F07318EA030FB0D04FEA181B4FEAC90317
:10196800019309EBC90A04EB8A0AC8F30A12DAF8E8
:101978008C12284600F072FFCBF30A0BDAF88C328F
:101988005B44CAF88C32019B4B4404EB8303D3F8C5
:101998009C325B44CAF89C328FE7082204F2C441A7
:1019A800284600F05BFFC8F30A1809EBC90204EBEC
:1019B8008202D2F89C324344C2F89C327DE7206808
:1019C80001F001F88046B14635E005EB49130122E4
:1019D800C3F8082B49462046FFF7FAFC3CE005EB24
:1019E80049130822C3F8082B49462046FFF772FD21
:1019F80035E009EBC90304EB830393F87F32012B2D
:101A080041D005EB49130222C3F8082B1AF0200F26
:101A180004D005EB49132022C3F8082B1AF4005F01
:101A280005D005EB49134FF40052C3F8082B09F110
:101A380001094FEA5808B8F1000F3FF449AF18F010
:101A4800010FF4D05FFA89FB5946206800F0CBFFFC
:101A5800824610F0010FB8D11AF0080FBFD11AF062
:101A6800100F04D005EB49131022C3F8082B1AF005
:101A7800020FCBD06B6913F0800FBAD07B6843F4A8
:101A880080637B60B5E709EBC90304EB830300229D
:101A980083F87F2259462046FFF7BEFAB1E720684F
:101AA80000F099FF8046B14625E059462046FFF7E9
:101AB8006DFA1AF0080F04D005EB49130822C3F891
:101AC80008291AF0100F04D005EB49131022C3F8A7
:101AD80008291AF0400F04D005EB49134022C3F837
:101AE80008291AF0020F40D11AF0800F5BD109F1D2
:101AF80001094FEA5808B8F1000F3FF4F0AE18F0AA
:101B0800010FF4D05FFA89FB5946206800F074FF92
:101B1800824610F0010FCCD009F00F03012101FA21
:101B280003F27B6B23EA02037B6305EB4913C3F8DB
:101B3800081923698B42B8D109EBC90304EB830365
:101B4800996CDA6C0A44DA64B9F1000FADD109EB8B
:101B5800C90304EB83035B6D002BA6D104F2C442D6
:101B68000121206800F0A2FF9FE74946284600F0BF
:101B780065FA09EBC90304EB830393F83F30012BA3
:101B880005D005EB49130222C3F80829ACE709EB95
:101B9800C90304EB8303002283F83F2059462046FB
:101BA800FFF740FAEDE749462046FFF7F1FA9EE7CE
:101BB8007B6823F001037B6094F8F434012B08D090
:101BC8002046FFF723FA2268536903F00043536164
:101BD8008BE6002184F8F414204600F041F9F2E77E
:101BE8002046FFF7FBF98BE67B6823F001037B6057
:101BF8001021206800F022FA1AE005EB46134FF690
:101C08007F31C3F80819D3F8002922F40012C3F869
:101C18000029C3F8081BD3F8002B22F40012C3F8DC
:101C2800002BD3F8002B42F00062C3F8002B0136DA
:101C38006368B342E1D8FB6943F00113FB61236B8E
:101C4800DBB1D7F8843043F00B03C7F884307B6CE2
:101C580043F00B037B64D5F8003823F4FE63C5F822
:101C6800003804F2C442217C206800F01FFF22687B
:101C7800536903F4805353614EE67B6943F4005380
:101C880043F02B037B613B6943F00B033B61E2E7C5
:101C9800206800F0FAFE206800F0EEFAE06026689E
:101CA80001F044FA0146227B304600F049F920460B
:101CB800FFF77DF92268536903F40053536132E654
:101CC8002046FFF76EF92268536903F00803536151
:101CD80030E601366368B3420CD906EBC60304EB61
:101CE800830393F87F32012BF3D1F1B22046FFF73B
:101CF80091FDEEE7206800F062FE10F4801F27D106
:101D0800206800F05CFE10F4001F5BD0012328E07F
:101D180001366368B3421DD905EB4613D3F8002991
:101D280006EBC60304EB830393F84030012BEFD195
:101D3800002AEDDA06EBC60304EB8303012283F8DD
:101D48003F2066F07F01C9B22046FFF763FDDFE759
:101D58000126DEE72268536903F480135361CFE755
:101D6800013362689A4228D905EB4312D2F8001B66
:101D780003EBC30204EB820292F88022012AEFD11E
:101D88000029EDDA01F48031D4F8FC2402F00102D4
:101D98009142E5D103EBC30204EB8202012182F8F0
:101DA8007F12AA6942F08002AA616A6912F0800F64
:101DB800D6D17B6843F400737B602268536903F4CF
:101DC80000135361206800F0FAFD10F0804F10D125
:101DD800206800F0F4FD10F0040F3FF43EAD2368D6
:101DE8005D6815F0040F0DD1226853682B435360CA
:101DF80033E52046FFF71CF92268536903F0804356
:101E08005361E5E72046FFF719F9EDE710B40468D8
:101E1800606A31B940EA0240A06200205DF8044BD4
:101E280070478C46A36A00EB1340002308E003F1D7
:101E3800400104EB8101496800EB11400133DBB23A
:101E48000CF1FF318B42F2D340EA02400CF13F0122
:101E580004EB81014860E0E703685962002070479D
:101E68007047000082B000230193019B0133019366
:101E7800019A0F4B9A4215D80369002BF5DA002313
:101E88000193036943F001030361019B013301934B
:101E9800019A074B9A4208D8036913F0010FF4D14D
:101EA800002000E0032002B070470320FBE700BFDA
:101EB800400D030084B010B5044603A880E80E0066
:101EC800089B012B1FD1A36B23F48033A363E36822
:101ED80023F4840323F04003E360E36823F440130E
:101EE800E3600F9B012B09D02046FFF7BBFF069B41
:101EF800012B1BD0BDE8104004B07047E36843F4E1
:101F08008013E360F0E7E36843F04003E3602046B2
:101F1800FFF7A8FF0C9B23B9A36B43F48033A3639B
:101F2800E5E7A36B23F48033A363E0E7A36843F0FA
:101F38000603A360A36843F02003A360DAE7000068
:101F4800022A0AD00921C26822F47052C260C3680A
:101F580043EA8123C36000207047234B0B44234A84
:101F680093422FD9224B0B44224A93422CD9A1F5F4
:101F78007403A3F51053204A934227D9A1F1837320
:101F8800A3F5E7431D4A934222D31D4B0B441D4A38
:101F980093421FD91C4B0B441C4A93421CD31C4B25
:101FA8000B441C4A934219D3A1F1B773A3F55853B4
:101FB800194A934214D3194B0B44194A934211D22C
:101FC8000721C0E70F21BEE70E21BCE70D21BAE7C4
:101FD8000C21B8E70B21B6E70A21B4E70921B2E7DB
:101FE8000821B0E70621AEE7405327FFFF340C0075
:101FF800401E1BFF3F420F007F4F120020D61300E8
:1020080060B6E5FE5FE3160000D3CEFE40771B0006
:10201800C05BB3FEC091210020753800E05459FE22
:10202800E09C4100836843F001038360002070470F
:10203800836823F0010383600020704782B0002387
:102048000193019B01330193019A0F4B9A4215D8D2
:102058000369002BF5DA00230193890141F020017F
:102068000161019B01330193019A074B9A4208D8F9
:10207800036913F0200FF4D1002000E0032002B020
:1020880070470320FBE700BF400D030082B0002328
:102098000193019B01330193019A0E4B9A4213D885
:1020A8000369002BF5DA0023019310230361019BD8
:1020B80001330193019A074B9A4208D8036913F038
:1020C800100FF4D1002000E0032002B07047032075
:1020D800FBE700BF400D0300D0F800381943C0F8F3
:1020E800001800207047000084B02DE9F041044634
:1020F80007A880E80E00002306E003F1400204EB85
:1021080082020021516001330E2BF6D9119F27BBA3
:10211800D4F8043843F00203C4F80438A36B43F43A
:102128000013A363A36B23F40023A363A36B23F41B
:102138008023A3630023C4F8003E04F50065D4F8A7
:102148000038C4F800380C9B012B14D1099B6BB9DB
:1021580000212046FFF7C0FF11E0A36B23F4001312
:10216800A363A36B43F40023A363E3E701212046A1
:10217800FFF7B2FF03E003212046FFF7ADFF102170
:102188002046FFF75BFF804608B14FF00108204664
:10219800FFF77CFF08B14FF0010800232B616B614A
:1021A800EB610AE0C3B94FF00060C2F800090022F1
:1021B8000A614FF67F328A6001330799994210D934
:1021C80004EB431202F51061D2F800090028E9DB9C
:1021D8000020C2F80009EAE74FF09040C2F8000971
:1021E800E5E700230AE0C3B14FF0904CC2F800CBFA
:1021F800002202614FF67F3282600133994211D981
:1022080004EB431202F53060D2F8006B002EEADBD3
:102218004FF0000CC2F800CBEAE74FF0006CC2F8B0
:1022280000CBE5E72B6923F480732B610023A361BE
:102238006FF0804363610A9B1BB9A36943F01003E5
:10224800A361A2690B4B1343A3610D9B1BB1A36947
:1022580043F00803A361012F04D04046BDE8F041D4
:1022680004B07047A36943F0804343F00403A361BB
:10227800F3E700BF00383C80D0F8083813F00603B5
:1022880007D0022B07D0062B01D00F207047022061
:102298007047002070470220704710B591F800C0C1
:1022A8004B78012B23D000F5006ED0F81C380CF0C9
:1022B8000F040122A24043EA0243C0F81C3800EB95
:1022C8004C10D0F8003B13F4004F0ED1D0F8003B6F
:1022D800CA68C2F30A02097942EA8142134343F009
:1022E800805343F40043C0F8003B002010BDD0F8F1
:1022F8001C280CF00F0E03FA0EF39BB21343C0F820
:102308001C3800EB4C10D0F8003913F4004FECD116
:10231800D0F80039CA68C2F30A02097942EA814250
:1023280042EA8C5C43EA0C0343F0805343F40043D5
:10233800C0F80039D9E7000030B40B784A78012A90
:1023480026D000EB4313D3F8002B002A52DBD0F839
:102358003C480A7802F00F024FF0010C0CFA02F226
:1023680024EA0242C0F83C28D0F81C28097801F079
:102378000F010CFA01FC22EA0C42C0F81C28D3F821
:10238800001B234A0A40C3F8002B002030BC7047CA
:1023980000EB4313D3F80029002A1EDBD0F83C5881
:1023A8000A7802F00F02012404FA02F292B225EA36
:1023B8000202C0F83C28D0F81C28097801F00F0167
:1023C8008C40A4B222EA0404C0F81C48D3F80019CF
:1023D800104A0A40C3F80029D7E7D3F8002942F089
:1023E8000062C3F80029D3F8002942F08042C3F8FC
:1023F8000029D3E7D3F8002B42F00062C3F8002B82
:10240800D3F8002B42F08042C3F8002B9FE700BFAF
:102418000078F3EF007833EC70B40B784C78012C2B
:1024280029D000EB431000F530631C69E40CE40488
:102438001C611C6924F0FF5424F4C0141C618C69CD
:102448000CB1CC688C61CC68CC611C6944F4002464
:102458001C611C69CD69C5F3120C44EA0C041C61AB
:10246800012A66D0D0F8003B43F00443C0F8003B93
:10247800002070BC70478C696CBB00EB4314D4F827
:10248800105925F0FF5525F4C015C4F81059D4F893
:10249800105945F40025C4F81059D4F81059ED0C1A
:1024A800ED04C4F81059012A34D000EB4313D3F8D3
:1024B800002942F00442C3F800298B69002BD7D0C9
:1024C800D0F834380A7802F00F0101228A40134309
:1024D800C0F83438CCE700EB431404F510642569E0
:1024E800ED0CED042561256925F0FF5525F4C0158F
:1024F8002561CD688E69AE4200D98D61256945F4A4
:102508000025256125698E69C6F3120C45EA0C057C
:102518002561C8E74A691AB100EB4311C1F81429CB
:1025280000EB4310D0F8002942F00442C0F800291B
:102538009EE70A69002A95D05A6193E710B483B0E0
:10254800024600230193487801280BD00B7802EB50
:102558004313D3F8000B00282DDB002003B05DF8EF
:10256800044B70470B7802EB4313D3F80049002C57
:1025780001DB0020F2E7D3F8004944F00064C3F817
:1025880000490B7802EB4313D3F8004944F0804428
:10259800C3F80049019B01330193019C42F2107377
:1025A8009C42DBD80B7802EB4313D3F80039002B9D
:1025B800F0DB0020D2E7D3F8000B40F00060C3F84E
:1025C800000B0B7802EB4313D3F8000B40F080406C
:1025D800C3F8000B019B01330193019842F2107379
:1025E800984208D80B7802EB4313D3F8003B002B32
:1025F800F0DB0020B2E70120B0E710B59DF80840F5
:1026080084B903334FEA930E4FF0000C08E000EB57
:10261800023303F5805351F8044B1C600CF1010C94
:10262800F445F4D3002010BDF0B583B00B784C7896
:10263800012C33D000EB431303F5306CDCF8104069
:10264800E40CE404CCF81040DCF8104024F0FF540B
:1026580024F4C014CCF810408C69002C40F0C780DA
:10266800DCF81040CD68C5F312052C43CCF81040B7
:10267800DCF8104044F40024CCF81040012A00F0A3
:10268800D0800A79012A00F0D380D3F8002B42F0D9
:102698000442C3F8002B002003B0F0BD8C6984BB52
:1026A80000EB4314D4F8105925F0FF5525F4C01554
:1026B800C4F81059D4F8105945F40025C4F8105935
:1026C800D4F81059ED0CED04C4F81059012A4CD077
:1026D80000EB4313D3F8004944F00444C3F800491D
:1026E8000C79012C6AD08B69002BD4D0D0F83438FF
:1026F8000A7802F00F0101228A401343C0F83438E7
:10270800C9E700EB4314D4F81059ED0CED04C4F8F4
:102718001059D4F8105925F0FF5525F4C015C4F800
:102728001059D4F810698D69CF683D44013DB5FB57
:10273800F7F5494F07EAC5453543C4F81059D4F8A9
:1027480010598E69C6F312063543C4F8105904F5BA
:1027580010640D79012DB9D1256925F0C045256191
:10276800256945F000552561B0E74A691AB100EBC3
:102778004314C4F814290A79012A08D000EB43133A
:10278800D3F8002942F00442C3F8002983E7D0F8BF
:10279800082812F4807F08D100EB4311D1F80029F2
:1027A80042F00052C1F80029E8E700EB4311D1F8E4
:1027B800002942F08052C1F80029DFE7D0F8084824
:1027C80014F4807F0CD1D3F8004944F00054C3F8C6
:1027D800004900920B8B0A780969FFF70EFF5AE748
:1027E800D3F8004944F08054C3F80049F1E7CD68B4
:1027F8002C44013CB4FBF5F4A4B204FB05F5CD610F
:10280800DCF81050144E06EAC4442C43CCF81040AF
:10281800DCF81040CD69C5F312052C43CCF8104004
:102828002CE70A69002A3FF42CAFCCF8142028E7DB
:10283800D0F8082812F4807F06D1D3F8002B42F094
:102848000052C3F8002B20E7D3F8002B42F0805247
:10285800C3F8002B19E700BF0000F81F00B583B0CC
:10286800844608464FEA920E02F00302002305E070
:102878000CF58051096840F8041B01337345F7D300
:102888009AB10CF5805CDCF8003001934FF0000C35
:102898005FFA8CF3D900019BCB4000F8013B0CF1A7
:1028A800010C013A92B2002AF2D103B05DF804FBA0
:1028B8000B784A78012A14D000EB4310D0F8002B8B
:1028C800002A06DB2BB1D0F8003B23F08043C0F888
:1028D800003BD0F8003B43F40013C0F8003B002055
:1028E800704700EB4310D0F80029002A06DB2BB113
:1028F800D0F8003923F08043C0F80039D0F8003907
:1029080043F40013C0F80039E9E70B784A78012A44
:102918000ED000EB4310D0F8003B23F40013C0F8AE
:10292800003B0B79023BDBB2012B15D90020704725
:1029380000EB4310D0F8003923F40013C0F8003935
:102948000B79023BDBB2012BF0D8D0F8003943F009
:102958008053C0F80039E9E7D0F8003B43F08053D2
:10296800C0F8003BE2E7D0F8003823F4FE63C0F873
:102978000038D0F80038090101F4FE611943C0F8A5
:10298800001800207047D0F8003E23F00303C0F879
:10299800003ED0F8043823F00203C0F804380020C1
:1029A8007047D0F8003E23F00303C0F8003ED0F88B
:1029B800043843F00203C0F8043800207047426925
:1029C800806910407047D0F8183800F50060C06979
:1029D8001840000C7047D0F8183800F50060C0693E
:1029E800184080B2704700EB4111D1F8082B00F570
:1029F800006040691040704710B4D0F81048D0F813
:102A0800343801F00F02D340DB01DBB2234300EB83
:102A1800411000F51060806818405DF8044B70475D
:102A2800406900F00100704738B50546C36823F0D7
:102A3800C043C360012913D019BBC36843F0804366
:102A4800C3600024012000F047FD01342846FFF749
:102A5800E7FF08B1312CF5D9322C14D0002038BD4D
:102A6800C36843F00053C3600024012000F034FD24
:102A780001342846FFF7D4FF0128EDD0312CF4D9D2
:102A8800EAE70120EBE70120E9E7D0F8003923F471
:102A9800FF6323F00703C0F80039D0F8043843F483
:102AA8008073C0F8043800207047000010B4046C2C
:102AB800154B9C4203D9D0F8003B002B16DB0024B1
:102AC800C0F8104BD0F8104B44F40024C0F8104B59
:102AD800D0F8104B44F01804C0F8104BD0F8104B45
:102AE80044F0C044C0F8104B012903D000205DF821
:102AF800044B7047C0F8142BD0F8003B43F08023F8
:102B0800C0F8003BF2E700BF0A30544F002800F03D
:102B1800E08170B582B00446036813F0010F3BD022
:102B28009F4B9B6803F00C03042B2CD09C4B9B6899
:102B380003F00C03082B21D06368B3F5803F4FD016
:102B4800B3F5A02F52D0964B1A6822F480321A603F
:102B58001A6822F480221A606368002B50D000F0B3
:102B6800B5FC05468E4B1B6813F4003F14D100F0EA
:102B7800ADFC401B6428F5D90320B1E1884B5B68A4
:102B880013F4800FD8D0864B1B6813F4003F03D092
:102B98006368002B00F09F81236813F0020F54D064
:102BA8007F4B9B6813F00C0F3ED07D4B9B6803F066
:102BB8000C03082B33D0E368002B68D0794B012233
:102BC8001A6000F083FC0546754B1B6813F0020F72
:102BD80054D100F07BFC401B0228F5D903207FE18B
:102BE8006F4A136843F480331360B5E76C4B1A6877
:102BF80042F480221A601A6842F480321A60ABE705
:102C080000F064FC0546664B1B6813F4003FC3D014
:102C180000F05CFC401B6428F5D9032060E1604BA0
:102C28005B6813F4800FC6D15D4B1B6813F0020F6D
:102C380003D0E368012B40F05081594A136823F010
:102C4800F803216943EAC1031360236813F0080FEE
:102C580042D063696BB3534B0122C3F8802E00F056
:102C680035FC05464E4B5B6F13F0020F34D100F074
:102C78002DFC401B0228F5D9032031E1484A13688E
:102C880023F0F803216943EAC1031360DDE7454BEC
:102C980000221A6000F01AFC0546414B1B6813F02D
:102CA800020FD2D000F012FC401B0228F5D90320F5
:102CB80016E13C4B0022C3F8802E00F007FC0546C5
:102CC800374B5B6F13F0020F06D000F0FFFB401B81
:102CD8000228F5D9032003E1236813F0040F77D005
:102CE8002F4B1B6C13F0805F33D1002301932C4BC7
:102CF8001A6C42F080521A641B6C03F080530193E3
:102D0800019B0125284B1B6813F4807F23D0A368FF
:102D1800012B34D0052B38D0214B1A6F22F0010239
:102D28001A671A6F22F004021A67A368002B3DD0B5
:102D380000F0CCFB06461A4B1B6F13F0020F46D16E
:102D480000F0C4FB801B41F288339842F3D903207A
:102D5800C6E00025D6E7144A136843F4807313606D
:102D680000F0B4FB0646104B1B6813F4807FCED1ED
:102D780000F0ACFB801B0228F5D90320B0E0084A1C
:102D8800136F43F001031367CFE7054B1A6F42F047
:102D980004021A671A6F42F001021A67C5E700BFFA
:102DA80000380240000047420070004000F08EFBEF
:102DB8000646524B1B6F13F0020F08D000F086FB3B
:102DC800801B41F288339842F3D9032088E0EDB99B
:102DD800A369002B00F08380484A926802F00C0235
:102DE800082A51D0022B17D0454B00221A6600F052
:102DF8006DFB0446414B1B6813F0007F42D000F086
:102E080065FB001B0228F5D9032069E03B4A136CD7
:102E180023F080531364DBE7394B00221A6600F075
:102E280055FB0546354B1B6813F0007F06D000F0B4
:102E38004DFB401B0228F5D9032051E0E369226AC3
:102E48001343626A43EA8213A26A5208013A43EAC8
:102E58000243E26A43EA0263284A5360284B01228C
:102E68001A6600F033FB0446244B1B6813F0007FFE
:102E780006D100F02BFB001B0228F5D903202FE018
:102E880000202DE000202BE0012B2BD01B4B5B6892
:102E980003F48001E269914226D103F03F02216ADE
:102EA8008A4223D1616A47F6C0721A40B2EB811F89
:102EB8001ED103F44031A26A5208013AB1EB024F25
:102EC80018D103F07063E26AB3EB026F14D10020EB
:102ED80006E001207047012002E0012000E0002008
:102EE80002B070BD0120FBE70120F9E70120F7E7F8
:102EF8000120F5E70120F3E70120F1E7003802405F
:102F08000000474208B52F4B9B6803F00C03082BC1
:102F180001D02D4808BD2B4B5A6802F03F025B6870
:102F280013F4800F2AD0274B5968C1F3881C4FEA45
:102F38004C11B1EB0C006EEB0E0E4FEA8E1343EA08
:102F480090638101091A63EB0E03DB0043EA5173B6
:102F5800C90011EB0C0C43F10003990200234FEA5E
:102F68008C2041EA9C51FDF72BF9164B5B68C3F3A3
:102F7800014301335B00B0FBF3F0CBE7114B596819
:102F8800C1F3881C4FEA4C11B1EB0C006EEB0E0E2E
:102F98004FEA8E1343EA90638101091A63EB0E032B
:102FA800DB0043EA5173C90011EB0C0C43F1000339
:102FB800990200234FEA8C2041EA9C51FDF700F961
:102FC800D3E700BF003802400024F400002800F0D6
:102FD8009B8070B50D4604464F4B1B6803F00703F2
:102FE8008B4208D2CBB24C4A1370136803F0070324
:102FF8008B4240F08B80236813F0020F17D013F038
:10300800040F04D0454A936843F4E053936023685F
:1030180013F0080F04D0414A936843F46043936067
:103028003E4A936823F0F003A1680B43936023683A
:1030380013F0010F32D06368012B21D09A1E012AA8
:1030480025D9364A126812F0020F61D033498A68CE
:1030580022F0030213438B6000F038FA06462F4B28
:103068009B6803F00C036268B3EB820F16D000F084
:103078002DFA801B41F288339842F0D9032042E0B0
:10308800264A126812F4003FE0D101203BE0234AAF
:10309800126812F0007FD9D1012034E01E4B1B6862
:1030A80003F00703AB4207D9EAB21B4B1A701B683F
:1030B80003F00703AB422DD1236813F0040F06D0A9
:1030C800164A936823F4E053E1680B43936023683E
:1030D80013F0080F07D0114A936823F4604321695D
:1030E80043EAC1039360FFF70DFF0C4B9B68C3F3E2
:1030F80003130B4AD35CD8400A4B18600A4B186874
:1031080000F098F9002070BD012070470120FAE70F
:103118000120F8E70120F6E7003C024000380240B1
:10312800285E00086C00002068000020014B186829
:10313800704700BF6C00002008B5FFF7F7FF044B8D
:103148009B68C3F38223034AD35CD84008BD00BF01
:1031580000380240385E000808B5FFF7E7FF044B67
:103168009B68C3F34233034AD35CD84008BD00BF11
:1031780000380240385E000800230F2B00F2E4807C
:1031880070B582B060E085685E000324B44025EA2B
:103198000405CC68B4402C438460456825EA0205E0
:1031A8004C68C4F300129A402A4342605AE0DC0893
:1031B800083450F8246003F0070295000F22AA4053
:1031C80026EA020E0A69AA4042EA0E0240F82420C2
:1031D8005CE0072200E0002202FA0EF22A430234E1
:1031E8005A4D45F824205A4A94686FEA0C0224EA9A
:1031F8000C054E6816F4801F01D04CEA0405544CA7
:10320800A560E46802EA04054E6816F4001F01D0C0
:103218004CEA04054E4CE560646802EA04054E6811
:1032280016F4003F01D04CEA0405494C6560246857
:1032380022404D6815F4803F01D04CEA0402444C0A
:10324800226001330F2B7DD801229A400C6804EAD2
:10325800020C32EA0404F4D14C6804F00304013C83
:10326800012C90D94A6802F00302032A09D0C468E5
:103278005D000322AA4024EA02048A68AA40224385
:10328800C2604A6802F00302022A90D004684FEA3A
:10329800430E032202FA0EF224EA02044A6802F0FC
:1032A800030202FA0EF2224302604A6812F4403F17
:1032B800C7D000220192274A546C44F480445464D5
:1032C800526C02F480420192019A9C08A51C1F4A84
:1032D80052F8255003F003024FEA820E0F2202FA39
:1032E8000EF225EA02051C4A90423FF474AF02F53B
:1032F800806290421AD002F58062904218D002F59E
:103308008062904216D002F58062904214D002F595
:103318008062904212D002F58062904210D002F58D
:10332800806290423FF455AF082255E7012253E7E7
:10333800022251E703224FE704224DE705224BE71B
:10334800062249E702B070BD704700BF003801404F
:10335800003C01400038024000000240074AD368A0
:1033680023F4E0631B041B0C000200F4E060034339
:1033780043F0BF6343F40033D360704700ED00E0CF
:1033880000B5194BDB68C3F30223C3F1070CBCF18A
:10339800040F28BF4FF0040C03F1040EBEF1060F12
:1033A80018D9033B4FF0FF3E0EFA0CFC21EA0C0142
:1033B80099400EFA03F322EA0303194300280BDBB2
:1033C8000901C9B200F1604000F5614080F80013BE
:1033D8005DF804FB0023E5E700F00F000901C9B21E
:1033E800024B1954F4E700BF00ED00E014ED00E0D3
:1033F800002807DB00F01F02400901239340024A1E
:1034080042F82030704700BF00E100E00138B0F119
:10341800807F0BD24FF0E0235861054AF02182F8F3
:1034280023100020986107221A6170470120704715
:1034380000ED00E010B504460E4B18784FF47A738F
:10344800B3FBF0F30C4A1068B0FBF3F0FFF7DEFFB4
:1034580068B90F2C01D901200AE0002221464FF05B
:10346800FF30FFF78DFF054B1C60002000E00120B6
:1034780010BD00BF640000206C0000206800002020
:1034880008B50B4B1A6842F400721A601A6842F4C5
:1034980080621A601A6842F480721A600320FFF78B
:1034A8005DFF0F20FFF7C6FFFDF788FA002008BD73
:1034B800003C0240034A1168034B1B780B4413601D
:1034C800704700BF541F002064000020014B18689B
:1034D800704700BF541F002038B50446FFF7F6FFB9
:1034E8000546B4F1FF3F02D0044B1B781C44FFF79C
:1034F800EDFF401BA042FAD338BD00BF6400002096
:10350800002800F0CC8070B5044690F83D30002BC0
:1035180077D0242384F83D302268136823F0010310
:1035280013602268136843F4004313602268136829
:1035380023F400431360FFF7FFFD62685A4B9A4279
:1035480064D85A4B98428CBF00230123002B40F0CB
:10355800A8805749A1FB00318B0C25686A6822F0C6
:103568003F0242EA91426A6021680A6A22F03F02F9
:1035780066684D4DAE424FD8013313430B62216844
:10358800CA6922F44F4222F0FF026668464B9E4207
:103598004CD8431E7600B3FBF6F3013340F6FC70BB
:1035A800034278D0C3F30B031343CB6121680B6844
:1035B80023F0C003E269206A024313430B602168C9
:1035C8008B6823F4034323F0FF032269E068024376
:1035D80013438B602168CB6823F0FF036269A069FD
:1035E80002431343CB602268136843F0010313605E
:1035F80000202064202384F83D30206384F83E00B6
:1036080070BD80F83C30FDF7F5F982E7294B984208
:103618008CBF0023012399E74FF4967505FB03F34C
:10362800254DA5FB03539B090133A6E7A368BBB946
:10363800451E06EB460CB5FBFCF50135C5F30B053D
:10364800B5FA85F56D0945BBC3B9013806EB4603E4
:10365800B0FBF3F30133C3F30B0343F40043A3E7D5
:10366800451E06EB860C0CEB8C0CB5FBFCF5013506
:10367800C5F30B05B5FA85F56D09E4E7013806EBE6
:10368800860303EB8303B0FBF3F30133C3F30B03AC
:1036980043F4404388E7042386E7012384E70120B5
:1036A80070470120ACE700BFA08601007F841E00A0
:1036B80083DE1B43FF083D00D34D62100B4B1B6894
:1036C8000B4AA2FB03235B0A41F2883202FB03F395
:1036D8001A46013B3AB1426B12F0800FF8D0C5236D
:1036E8008363002070474FF0004070476C00002053
:1036F800D34D621084B00DF1040C8CE80E000B461B
:103708001343039A1343049A1343059A1343069ADF
:103718001343426822F4FD4222F07F0213434360C0
:10372800002004B07047D0F880007047032303607E
:1037380000207047006800F0030070470B68836042
:103748004B688A681343CA6813430A691343C268FB
:1037580022F47F6222F00F021343C36000207047F7
:103768000069C0B270471430405870470B68436214
:103778004B6883628B68CA6813430A6913434A69B2
:103788001343C26A22F0F7021343C3620020704752
:1037980010B586B004460023019302930393049363
:1037A8004FF48063059301A9FFF7C8FF2046FFF790
:1037B80085FF06B010BD000038B504460D46504BD5
:1037C8001B685049A1FB03135B0A03FB02F2134673
:1037D800013A002B5DD0636B13F0450FF7D013F45B
:1037E800006FF4D1636B13F0040F06D1636B13F011
:1037F800010F05D00120A0634DE00420A0634AE03A
:10380800C523A3632046FFF7ABFFA84201D00120E0
:1038180041E000212046FFF7A6FF03463A4818403A
:10382800C8B3002B38DB13F0804F38D113F0005F9A
:1038380037D113F0805F36D113F0006F36D113F013
:10384800806F36D113F0807F36D113F4000F36D154
:1038580013F4800F36D113F4001F36D113F4801FF0
:1038680036D113F4802F36D113F4003F36D113F438
:10387800803F36D113F4004F36D113F4804F36D140
:1038880013F4005F36D113F0080F36D04FF4000060
:1038980001E04FF0004038BD4FF00070FBE74020DA
:1038A800F9E78020F7E74FF48070F4E74FF40070F1
:1038B800F1E74FF48060EEE74FF40060EBE74FF478
:1038C8008050E8E74FF40050E5E74FF48040E2E726
:1038D8004FF40040DFE74FF40030DCE74FF480207E
:1038E800D9E74FF40020D6E74FF48010D3E74FF420
:1038F8000010D0E74FF48000CDE74FF48030CAE7DE
:103908006C000020D34D621008E0FFFD30B587B091
:103918000446019110250295402303930023049344
:103928004FF48063059301A9FFF708FF41F288323D
:1039380029462046FFF740FF07B030BD30B587B0B5
:10394800044601920725029540230393002304931C
:103958004FF48063059301A9FFF7F0FE41F2883226
:1039680029462046FFF728FF07B030BD30B587B09D
:1039780004460191372502954023039300230493BD
:103988004FF48063059301A9FFF7D8FE41F288320E
:1039980029462046FFF710FF07B030BD30B587B085
:1039A80004460191062502954023039300230493BE
:1039B8004FF48063059301A9FFF7C0FE41F28832F6
:1039C80029462046FFF7F8FE07B030BD30B587B06E
:1039D8000446002301933325029540220392049361
:1039E8004FF48063059301A9FFF7A8FE41F28832DE
:1039F80029462046FFF7E0FE07B030BD0146144BCC
:103A08001B68144AA2FB03235B0A41F2883202FBBB
:103A180003F31A46013BBAB14A6B12F0450FF8D0CE
:103A280012F4006FF5D14B6B13F0040F06D1486BFD
:103A380010F0010005D1C5238B637047042088630B
:103A480070470120886370474FF00040704700BFFF
:103A58006C000020D34D621010B586B004460023D8
:103A6800019302220292C022039204934FF48063CE
:103A7800059301A9FFF762FE2046FFF7BFFF06B0D6
:103A880010BD10B586B00446019109230293C023E6
:103A98000393002304934FF48063059301A9FFF770
:103AA8004DFE2046FFF7AAFF06B010BD0146104B99
:103AB8001B68104AA2FB03235B0A41F2883202FB0F
:103AC80003F31A46013B82B14A6B12F0450FF8D056
:103AD80012F4006FF5D1486B10F0040002D1C52331
:103AE8008B6370470420886370474FF0004070472D
:103AF8006C000020D34D621010B586B0044641F02A
:103B0800004141F48011019129230293402303933A
:103B1800002304934FF48063059301A9FFF70EFE79
:103B28002046FFF7C3FF06B010BD0000F8B50546F4
:103B38000E461746234B1B68234AA2FB03235B0A46
:103B480041F2883202FB03F31A46013B8AB36C6BDD
:103B580014F0450FF8D014F4006FF5D16B6B13F027
:103B6800040F06D16B6B13F0010F05D00120A86379
:103B780021E00420A8631EE02846FFF7F1FDB042CB
:103B880001D0012017E0C523AB6300212846FFF7C9
:103B9800EAFD034610F4604008D013F4804F0BD1BF
:103BA80013F4004F0BD04FF4805004E01B0C3B8003
:103BB80001E04FF00040F8BD4FF40050FBE74FF430
:103BC8008030F8E76C000020D34D621070B586B0E5
:103BD80004460D46002301930326029640220392D1
:103BE80004934FF48063059301A9FFF7A7FD2A46C4
:103BF80031462046FFF79AFF06B070BD0146164BC6
:103C08001B68164AA2FB03235B0A41F2883202FBB7
:103C180003F31A46013BE2B14A6B12F0450FF8D0A4
:103C280012F4006FF5D14B6B13F0040F0BD14B6BF3
:103C380013F001030AD1486B10F040000BD040226A
:103C48008A63184670470420886370470120886398
:103C580070474FF0004070476C000020D34D621051
:103C680010B586B004464FF4D57301930823029328
:103C780040230393002304934FF48063059301A921
:103C8800FFF75CFD2046FFF7B9FF06B010BD000046
:103C980070B582B00446002301930068FFF778FDF1
:103CA800054610B1284602B070BD2068FFF7D8FF5E
:103CB80038B90123A364A36C012B0BD02E462846E8
:103CC80014E00023A3642068FFF762FD0028F2D007
:103CD8000546E7E700212068FFF748FE0028EDD0F9
:103CE8004FF08055DEE7019B01330193019A4FF6AF
:103CF800FE739A4213D896B900212068FFF736FE62
:103D0800E0B912492068FFF7F7FE0646C0B900215E
:103D18002068FFF728FDC30FE5D01E46E3E7019AA8
:103D28004FF6FE739A420ED810F0804302D001235A
:103D38006364B7E7002262641D46B3E70546B1E74E
:103D48004FF08055AEE74FF08075ABE7000010C12B
:103D5800F0B589B004460F46FFF7B8FB06460023C6
:103D68000093019308212068FFF7D0FD054610B1A4
:103D7800284609B0F0BD216D09042068FFF7F6FD5B
:103D880005460028F4D14FF0FF330293082303932C
:103D980030230493022305930023069301230793FA
:103DA80002A92068FFF7E2FC2068FFF70FFE05462E
:103DB80058B1DDE7FFF7B7FC4DF825000135FFF7EF
:103DC80085FB831BB3F1FF3F3FD02068436B13F0A3
:103DD8002A0F07D1436B13F4001FEBD1436B13F485
:103DE800005FECD1436B13F0080F25D1436B13F040
:103DF800020F24D1456B15F0200523D140F23A5328
:103E08008363019A130203F47F0343EA0263110AEE
:103E180001F47F410B4343EA12633B60009A1302AB
:103E280003F47F0343EA0263110A01F47F410B4361
:103E380043EA12637B609BE70825856398E70225C0
:103E4800856395E72025856392E74FF000458FE766
:103E580010B582B004460021009101910068FFF777
:103E680082FC10F0007F13D169462046FFF770FFEF
:103E780080B9019B13F4802F0ED0216D09042068AE
:103E8800FFF774FD30B902212068FFF787FD01E0D4
:103E98004FF4006002B010BD4FF08060FAE710B533
:103EA80082B004460021009101910068FFF75BFC95
:103EB80010F0007F13D169462046FFF749FF80B90B
:103EC800019B13F4803F0ED0216D09042068FFF791
:103ED8004DFD30B900212068FFF760FD01E04FF487
:103EE800006002B010BD4FF08060FAE7436E9B0F90
:103EF8000B70436EC3F383634B7090F8673003F025
:103F080003038B7090F86630CB7090F865300B71B6
:103F180090F864304B71836E1B0DCB80B0F86A301B
:103F280003F00F030B72836EC3F3C0334B72836EBF
:103F3800C3F380338B72836EC3F34033CB72836ECB
:103F4800C3F300330B7300234B73436C002B40F017
:103F58008680826E40F6FC7303EA8203C26E43EAEF
:103F680092730B61C36EC3F3C2630B7590F86F3025
:103F780003F007034B75C36EC3F342538B75C36ECF
:103F8800C3F38243CB75C36EC3F3C2330B760B699D
:103F9800013343650A7E02F007020232934043650B
:103FA8000A7A02F00F0C012202FA0CF28265520A18
:103FB80002FB03F3C3654FF400730366C36EC3F3D8
:103FC80080334B76C36EC3F3C6138B76C36E03F090
:103FD8007F03CB76036FDB0F0B77036FC3F341735C
:103FE8004B77036FC3F382638B77036FC3F38353FA
:103FF800CB77036FC3F3405381F82030002381F857
:104008002130B0F8722002F0010281F82220026FFC
:10401800C2F3C03281F82320026FC2F3803281F8E4
:104028002420026FC2F3403281F82520026FC2F3C8
:10403800003281F82620026FC2F3812281F82720FE
:10404800026FC2F3012281F82820026FC2F34602F0
:1040580081F82920012281F82A2018467047012B6F
:1040680011D1836E1B0403F47C13B0F86E20134344
:104078000B610B6901339B024365C3654FF4007301
:10408800836503669AE70368054A9A63836B43F07E
:1040980080538363012380F834301846704700BF8B
:1040A800FF05400070B590B004460123ADF812300A
:1040B8000068FFF73FFB00286CD0636C032B45D1E9
:1040C800636C032B5DD1636C032B1DD0BDF81210FC
:1040D800216509042068FFF7D4FC054600285BD158
:1040E80000212068FFF73FFB606604212068FFF786
:1040F8003AFBA06608212068FFF735FBE0660C2133
:104108002068FFF730FB206704212068FFF72BFBAE
:10411800000DE06405A92046FFF7E8FE00283ED11F
:10412800226D120400232068FFF708FC054698BB9F
:10413800234653F8106B93E807008DE80700043412
:1041480094E80E003046FFF7D5FA25E02068FFF71F
:1041580083FC054600BB00212068FFF704FB60676D
:1041680004212068FFF7FFFAA06708212068FFF7FD
:10417800FAFAE0670C212068FFF7F5FAC4F8800026
:104188009EE70DF112012068FFF720FD0546002883
:1041980099D001E04FF08065284610B070BD4FF00F
:1041A8008055F9E770B58AB0044600230493059357
:1041B800069307930893762309930AAB13E907003C
:1041C8008DE8070004AB0ECB2068FFF793FA18B10F
:1041D800012528460AB070BD05461A4E0023C6F8C8
:1041E800A0302068FFF7A2FA0123C6F8A030022009
:1041F800FFF772F92046FFF74BFD30B1012584F82F
:104208003450A36B0343A363E3E72046FFF74AFF59
:1042180030B1012584F83450A36B0343A363D8E776
:104228004FF400712068FFF771FB0028D1D0236894
:1042380005499963A36B0343A363012584F83450AC
:10424800C7E700BF00802542FF054000A8B110B5B0
:10425800044690F8343063B1032384F834302046A0
:10426800FFF7A0FF58B9A0632063012384F8343016
:1042780010BD0377FCF7F6FBEEE70120704701203D
:10428800F6E7000030B58BB004460D46032380F8EE
:104298003430436C032B1CD0B1F5805F08D0B1F5E6
:1042A800006F0AD079B1836B43F00063836314E035
:1042B800836B43F0805383630FE0FFF7C9FDA36B63
:1042C8000343A36309E0FFF7EAFDA36B0343A3637A
:1042D80003E0836B43F080538363A36BC3B123680C
:1042E800174A9A63012584F834504FF40071206806
:1042F800FFF70CFB30B1236811499963A36B0343A3
:10430800A3630125012384F8343028460BB030BD5F
:1043180063680493A3680593E36806930795636944
:104328000893A36909930AAB13E907008DE807000E
:1043380004AB0ECB2068FFF7DDF90025D5E700BFF9
:10434800FF05400030B4036A23F001030362036AE7
:104358004268846924F073040D682C4323F0020C2E
:104368008B6843EA0C03104DA84203D005F580651D
:10437800A84205D123F00803CD682B4323F004039A
:10438800094DA84203D005F58065A84205D122F45D
:1043980040724D692A438D692A43426084614A68A4
:1043A8004263036230BC70470000014030B4036AC6
:1043B80023F480730362036A4268C46924F0730CAF
:1043C8000C6844EA0C0523F400738C6843EA042360
:1043D800114CA04203D004F58064A04206D123F416
:1043E8000063CC6843EA042323F480630A4CA042A8
:1043F80003D004F58064A04207D122F440524C69EE
:1044080042EA04128C6942EA04124260C5614A68B1
:10441800C263036230BC70470000014030B4036AD5
:1044280023F480530362036A4468C26922F4E642B3
:104438000D6842EA052223F400538D6843EA0533E8
:10444800094DA84203D005F58065A84204D124F49B
:1044580080444D6944EA85144460C2614A68026434
:10446800036230BC704700BF0000014010B4036A0B
:10447800046A24F001040462846924F0F00C4CEA14
:10448800021223F00A030B43826103625DF8044BB6
:10449800704710B4046A24F0100404628469036A43
:1044A80024F4704C4CEA023223F0A00343EA0113CF
:1044B800826103625DF8044B7047836823F07003E0
:1044C8000B4343F007038360704770477047000051
:1044D8000368304A904212D0B0F1804F0FD0A2F555
:1044E8007C4290420BD002F58062904207D002F5E0
:1044F8008062904203D002F57842904203D123F0C3
:1045080070034A681343234A90422AD0B0F1804F7F
:1045180027D0A2F57C42904223D002F580629042D7
:104528001FD002F5806290421BD002F5784290427B
:1045380017D002F57052904213D002F58062904273
:104548000FD002F5806290420BD0A2F598329042CB
:1045580007D002F58062904203D002F58062904253
:1045680003D123F44073CA68134323F080034A69D4
:10457800134303608B68C3620B688362054B9842E0
:1045880003D003F58063984201D10B6903630123CB
:10459800436170470000014040B310B5044690F8ED
:1045A8003D30F3B1022384F83D30214651F8040B25
:1045B800FFF78EFF012384F8463084F83E3084F8F4
:1045C8003F3084F8403084F8413084F8423084F831
:1045D800433084F8443084F8453084F83D30002076
:1045E80010BD80F83C30FCF78DFADBE701207047FE
:1045F80040B310B5044690F83D30F3B1022384F877
:104608003D30214651F8040BFFF762FF012384F87F
:10461800463084F83E3084F83F3084F8403084F8DF
:10462800413084F8423084F8433084F8443084F8C8
:10463800453084F83D30002010BD80F83C30FFF74D
:1046480044FFDBE70120704740B310B5044690F8FB
:104658003D30F3B1022384F83D30214651F8040B74
:10466800FFF736FF012384F8463084F83E3084F89B
:104678003F3084F8403084F8413084F8423084F880
:10468800433084F8443084F8453084F83D300020C5
:1046980010BD80F83C30FFF719FFDBE701207047B9
:1046A80030B4036A23F010030362036A4468826922
:1046B80022F4E6420D6842EA052223F020038D68C1
:1046C80043EA0513114DA84203D005F58065A842B9
:1046D80006D123F08003CD6843EA051323F0400395
:1046E8000A4DA84203D005F58065A84207D124F4F5
:1046F80040644D6944EA85048D6944EA8504446050
:1047080082614A688263036230BC704700000140DE
:1047180090F83C30012B28D010B50446012380F8CE
:104728003C300C2A1CD8DFE802F0071B1B1B0C1BB3
:104738001B1B111B1B1B16000068FFF703FE002044
:104748000FE00068FFF7ACFF00200AE00068FFF701
:104758002DFE002005E00068FFF760FE002000E065
:104768000120002384F83C3010BD0220704738B582
:1047780090F83C30012B66D004460D46012380F8A2
:104788003C300C2A5AD8DFE802F0075959591B590E
:1047980059593059595944000068FFF7D3FD226828
:1047A800936943F0080393612268936923F0040333
:1047B80093612268936929690B43936100203EE065
:1047C8000068FFF76DFF2268936943F40063936103
:1047D8002268936923F48063936122689369296945
:1047E80043EA01239361002029E00068FFF7DEFD1A
:1047F8002268D36943F00803D3612268D36923F0A0
:104808000403D3612268D36929690B43D36100206B
:1048180015E00068FFF702FE2268D36943F40063DD
:10482800D3612268D36923F48063D3612268D36992
:10483800296943EA0123D361002000E00120002315
:1048480084F83C3038BD0220FCE710B4846824F4B6
:104858007F4C42EA03220A4342EA0C0282605DF876
:10486800044B704790F83C30012B78D010B50446C3
:10487800012380F83C30022380F83D3002689368B9
:1048880023F47F4323F0770393600B68602B4CD0AD
:1048980029D8402B54D00CD9502B22D1CA6849684A
:1048A8000068FFF7E3FD50212068FFF706FE0020AF
:1048B80005E0202B0DD009D9302B0AD00120012387
:1048C80084F83D30002384F83C3010BD0BB1102B28
:1048D80005D119462068FFF7F0FD0020EFE7012019
:1048E800EDE70120EBE7B3F5805F34D0B3F5005F67
:1048F8000CD1CB684A6889680068FFF7A6FF226870
:10490800936843F4804393600020D8E7702B24D148
:10491800CB684A6889680068FFF797FF2268936840
:1049280043F0770393600020C9E7CA6849680068C4
:10493800FFF7AFFD60212068FFF7BFFD0020BEE74D
:10494800CA6849680068FFF791FD40212068FFF7B1
:10495800B4FD0020B3E70020B1E70120AFE7022053
:10496800704701F01F01012303FA01FC036A23EADF
:104978000C030362036A02FA01F10B4303627047F6
:1049880010B504460846002942D194F83E30DBB2FF
:10499800013B18BF0123002B6ED1002851D10223FF
:1049A80084F83E30012201462068FFF7DAFF2368C9
:1049B800334A934203D002F58062934203D15A6C82
:1049C80042F400425A6423682D4A934249D0B3F115
:1049D800804F46D0A2F57C42934242D002F58062D5
:1049E80093423ED002F5806293423AD002F5784273
:1049F800934236D002F57052934232D0A2F59432E7
:104A080093422ED01A6842F001021A60002032E068
:104A1800042908D008290DD094F84130DBB2013BB5
:104A280018BF0123B7E794F83F30DBB2013B18BF4A
:104A38000123B0E794F84030DBB2013B18BF0123F3
:104A4800A9E7042805D0082807D0022384F84130B4
:104A5800A8E7022384F83F30A4E7022384F8403013
:104A6800A0E79A6802F00702062A07D01A6842F0FF
:104A780001021A60002010BD0120FCE70020FAE7BF
:104A88000000014090F83C30012B3DD010B40123C8
:104A980080F83C30022380F83D3003685A689C68EF
:104AA80022F0700C0A6842EA0C025A600368174A3E
:104AB80093421AD0B3F1804F17D0A2F57C429342AB
:104AC80013D002F5806293420FD002F580629342C0
:104AD8000BD002F57842934207D002F57052934208
:104AE80003D0A2F59432934204D124F080044A689A
:104AF80014439C60012380F83D30002380F83C304B
:104B080018465DF8044B70470220704700000140CA
:104B180038B504460268136923F44053C1680B434F
:104B2800136183680269134342691343C2691A43D4
:104B38000168CB6823F4164323F00C031343CB60BE
:104B48000268536923F4407381690B435361036816
:104B5800314A934206D002F58062934202D0FEF7B2
:104B6800EBFA01E0FEF7F8FAE369B3F5004F29D054
:104B78000021031849411B1841F10001C90041EA0D
:104B88005371DB00181863684FEA83024FEA937386
:104B980041F10001FBF714FB204DA5FB0032510940
:104BA800642303FB11031B013233A5FB03235B09B9
:104BB80003F0F00202EB011203F00F032168134423
:104BC8008B6038BD0023021843EB0301121841F132
:104BD8000001C90041EA5271D200101841F10001E8
:104BE800626892185B41FBF7EBFA0C4DA5FB0032AB
:104BF8005109642303FB1103DB003233A5FB0323B4
:104C08005B095A0002F4F87202EB011203F0070381
:104C1800216813448B60D4E7001001401F85EB51D5
:104C280058B310B5044690F83D300BB3242384F8EC
:104C38003D302268D36823F40053D3602046FFF741
:104C480067FF2268136923F490431361226853694C
:104C580023F02A0353612268D36843F40053D360D6
:104C680000202064202384F83D3084F83E3010BDB5
:104C780080F83C30FBF7E4FFD8E7012070470000DC
:104C8800034AD2F8883043F47003C2F8883070477A
:104C980000ED00E098B108B503460020C3F8B8025B
:104CA800C3F8C402C3F8D00209B1C3F8B412012191
:104CB80083F89C121A701846FCF7C6F908BD032041
:104CC800704710B582B00023ADF8063089B10446AC
:104CD800C0F8B812CB6A23B10DF106009847C4F8A2
:104CE800D002D4F8D8320133C4F8D832002002B048
:104CF80010BD0320FBE708B5FCF707FA08BD08B5A7
:104D0800D0F8B83213B11B68984708BD0020FCE7FB
:104D180008B5D0F8B8325B68984700B908BD0320D9
:104D2800FCE738B5044600F2AA25284600F0C4F985
:104D38000123C4F89432B4F8B032C4F8983294F825
:104D4800AA1201F01F03012B0DD0022B10D02BB19A
:104D580001F080012046FCF7F3F903E029462046DC
:104D680000F080FB38BD2946204600F0B6FBF9E785
:104D78002946204600F0F3FBF4E7F8B50446012382
:104D880080F89C320023C0F894324360C0F8A43203
:104D980080F8A032D0F8B832DBB15B68DBB1002113
:104DA80098470746C8B94023002211462046FCF719
:104DB800B4F90126A4F864614025C4F860512B4673
:104DC800002280212046FCF7A8F9A68425623846EF
:104DD800F8BD0027E7E70027E5E70327E3E70174C5
:104DE8000020704790F89C32DBB280F89D32042393
:104DF80080F89C320020704790F89C32DBB2042B7C
:104E080001D00020704790F89D32DBB280F89C32C8
:104E1800F7E708B590F89C32DBB2032B01D00020ED
:104E280008BDD0F8B832002BF9D0DB69002BF6D0DA
:104E38009847F4E708B5D0F8D432AE3350F82320B9
:104E48005AB190F89C32DBB2032B01D0002008BD88
:104E5800136A23B198470020F9E70320F7E70020F9
:104E6800F5E708B5D0F8D432AE3350F823205AB15C
:104E780090F89C32DBB2032B01D0002008BD536AA6
:104E880023B198470020F9E70320F7E70020F5E76A
:104E98000020704708B5012380F89C32D0F8B8325A
:104EA80023B15B680179984710B908BD0020FCE779
:104EB8000320FAE7002070470020704738B5044601
:104EC8000D46002943D11346D0F89422032A01D075
:104ED800084638BDD0F85C11D0F86021914212D84C
:104EE80090F8AA3203F01F03012B17D0022B1CD015
:104EF800284694F89C32DBB2032B1BD0204600F0E6
:104F08008FFC2846E5E7891AC0F85C118A4228BF59
:104F18000A46194600F07CFC2846DAE790F8AE12FB
:104F2800FFF7C8FF0028E9D1E3E790F8AE12FFF7D2
:104F3800C3FFF7E700F1AE0354F823301A69002ADB
:104F4800DCD0C4F8D4021B6920469847D6E701F0A4
:104F58007F01FFF7B1FF90B994F89C32DBB2032BC5
:104F6800B7D100F1AE0354F823309A69002AB0D0C3
:104F7800C4F8D4029B69294620469847A9E700202F
:104F8800A7E738B504460D4600294BD11346D0F89B
:104F98009422022A07D094F8A00218B1002384F8BA
:104FA800A032284638BDC269016A8A420ED88A42B0
:104FB80018D094F89C32DBB2032B27D080212046EE
:104FC800FCF7BEF8204600F036FCE4E7521AC2614E
:104FD800194600F006FC00231A4619462046FCF73D
:104FE800CFF8D8E783699942E3D8D0F8982293425A
:104FF800DFD20022114600F0F4FB0021C4F8981219
:105008000B460A462046FCF7BBF8C4E7D4F8B8328A
:10501800DA68002AD2D00022C4F8D422DB682046FD
:105028009847CBE741F08001FFF746FF90B994F825
:105038009C32DBB2032BB5D100F1AE0354F8233018
:105048005A69002AAED0C4F8D4025B6929462046C2
:105058009847A7E70020A5E703780A8813440B8040
:10506800037818447047428803789A4218D930B5B3
:1050780083B004460D46ADF806306288BDF80630A8
:105088009A420AD90DF10601FFF7E6FF4378052B8E
:10509800F3D18378AB42F0D100E0002003B030BDFB
:1050A800002070470346002002E00130C0B20133FF
:1050B8001A78002AF9D170470B7803704B7843703F
:1050C8008B78CA7843EA022343800B794A7943EA0A
:1050D800022383808B79CA7943EA0223C38070470D
:1050E80010B504468021FCF72BF800212046FCF778
:1050F80027F810BD30B583B004460D460023ADF83F
:1051080006304A88130A013B062B00F2AB80DFE821
:1051180003F0041F33A9A98D9A00D0F8B4321B6894
:105128000DF10601007C9847EA88002A00F0A38068
:10513800BDF80630002B00F099809A4228BF1A4625
:10514800ADF806200146204600F03EFB03B030BD16
:10515800037C43B9D0F8B8329B6A0DF10600984732
:1051680002234370E0E7D0F8B832DB6A0DF106009D
:10517800984702234370D7E7D2B2052A52D8DFE80E
:1051880002F003101D2A3744D0F8B4325B6823B10B
:105198000DF10601007C9847C6E72946FFF7A0FFF6
:1051A800D4E7D0F8B4329B6823B10DF10601007C36
:1051B8009847B9E72946FFF793FFC7E7D0F8B43215
:1051C800DB6823B10DF10601007C9847ACE729465E
:1051D800FFF786FFBAE7D0F8B4321B6923B10DF1A7
:1051E8000601007C98479FE72946FFF779FFADE75E
:1051F800D0F8B4325B6923B10DF10601007C984701
:1052080092E72946FFF76CFFA0E7D0F8B4329B6914
:1052180023B10DF10601007C984785E72946FFF781
:105228005FFF93E72946FFF75BFF8FE7037C33B9FE
:10523800D0F8B8325B6B0DF10600984774E7294641
:10524800FFF74EFF82E7037C43B9D0F8B8321B6BF7
:105258000DF1060098470723437065E72946FFF7D5
:105268003FFF73E72946FFF73BFF6FE729462046D4
:10527800FFF736FF6AE7204600F0D2FA66E738B54E
:1052880004468B88FBB9CB88EBB94B887F2B1AD89F
:1052980003F07F0590F89C32DBB2032B0CD080F82A
:1052A8009E522946FBF75CFF204600F0B9FA35B15B
:1052B800022384F89C3209E0FFF712FF06E001237D
:1052C80084F89C3202E02046FFF70AFF38BD000050
:1052D80070B504460E468D782F4B1D70012D10D8E1
:1052E80090F89C32DBB2022B0FD0032B26D0FFF7AD
:1052F800F7FE294B19782046FFF70AFD03252846B3
:1053080070BDFFF7EDFE0325F9E7A5B14560294615
:10531800FFF7F5FC054638B131462046FFF7E0FEB9
:10532800022384F89C32EAE7204600F079FA032346
:1053380084F89C32E3E700F073FAE0E7CDB1416806
:105348008D4225D0C9B2FFF7E3FC134B1978616091
:105358002046FFF7D4FC0546B0B131462046FFF79A
:10536800BFFE21792046FFF7D3FC022384F89C3244
:10537800C5E7022380F89C3245602946FFF7C8FC40
:10538800204600F04DFABAE7204600F049FAB6E7A1
:1053980000F046FA0025B2E7581F002008B5CB8870
:1053A800012B0BD190F89C32DBB2022B09D9032BCD
:1053B80009D10122011D00F007FA01E0FFF790FE74
:1053C80008BD5BB213B9FFF78BFEF9E7014600236E
:1053D80041F8083F012200F0F7F9F1E708B590F825
:1053E8009C32013B022B12D8CB88022B0CD1012313
:1053F800C360D0F8A4320BB10323C360022200F1CA
:105408000C0100F0E1F908BDFFF76AFEFBE7FFF7C2
:1054180067FEF8E708B54B88012B04D0022B07D0AC
:10542800FFF75EFE08BDC0F8A43200F0F9F9F9E70D
:105438008B881B0A80F8A03200F0F2F9F2E708B571
:1054480090F89C32013B022B09D84B88012B00D0E5
:1054580008BD0023C0F8A43200F0E2F9F8E7FFF72E
:105468003FFEF5E738B50C7804F06004202C06D030
:10547800402C04D06CB1FFF733FE002407E0D0F8CD
:10548800D432AE3350F823309B6898470446204600
:1054980038BD4D78092D1DD8DFE805F012191C1606
:1054A8001C08051C0F0BFFF725FEF0E7FFF7E7FECA
:1054B800EDE7FFF70DFF0446E9E7FFF76FFFE6E7C3
:1054C800FFF78CFF2C46E2E7FFF7A4FFDFE7FFF7C3
:1054D800B6FFDCE7FFF704FED9E770B505460C46D2
:1054E8000B7803F06003202B07D0402B05D023B1A5
:1054F800FFF7F6FD0026304670BD95F89C32013B5B
:10550800022B26D82179012905D921462846FFF7FB
:10551800E7FD0026EFE72846FFF7CCFC68B900F165
:10552800AE0255F82220916889B1C5F8D402936873
:10553800214628469847064600E00326E388002BC4
:10554800D9D1002ED7D1284600F06AF9D3E703262F
:10555800F4E721462846FFF7C3FD0026CBE72DE9EF
:10556800F04106460D468B88DFB20C7804F06004E3
:10557800202C08D0402C06D0DCB1FFF7B1FD002468
:105588002046BDE8F08139463046FFF795FC0446D1
:10559800002840F0F880C6F8D40200F1AE0356F8AF
:1055A80023309B68002BEBD02946304698470446A9
:1055B800E6E791F80180B8F1010F31D0B8F1030F97
:1055C80005D0B8F1000F67D0FFF78AFDD8E790F84B
:1055D8009C32DBB2022B04D0032B12D0FFF780FDE4
:1055E800CEE70FB1802F04D129463046FFF778FD6A
:1055F800C6E73946FBF7A4FD80213046FBF7A0FD3E
:10560800BEE74B8823B91FB1802F01D0CB881BB1CF
:10561800304600F005F9B3E73946FBF791FDF7E7A7
:1056280090F89C32DBB2022B04D0032B12D0FFF788
:1056380057FDA5E70FB1802F04D129463046FFF763
:105648004FFD9DE73946FBF77BFD80213046FBF790
:1056580077FD95E74B88002B92D117F07F0F17D174
:10566800304600F0DDF839463046FFF725FC0028C3
:1056780086D1C6F8D40200F1AE0256F8222092680C
:10568800002A00F08280294630469047044677E792
:105698003946FBF75DFDE3E790F89C22D2B2022A77
:1056A80005D0032A27D0FFF71BFD444668E70FB152
:1056B800802F13D113F0800F14D107F07F0707EB69
:1056C8008707B90001F5A8713144043100230B6044
:1056D8000222304600F078F8444651E7FFF700FD13
:1056E80044464DE707F07F0707EB8707B9001031FD
:1056F80031440431EAE75BB2002B1FDB07F00F02ED
:1057080002EB820200EB8202B2F864211AB3002B8A
:1057180025DB07F07F0303EB83039C0004F5A874E3
:10572800344404340FB1802F22D100232360022295
:105738002146304600F048F8444621E707F00F02BA
:1057480002EB820200EB8202928C002ADFD1FFF783
:10575800C7FC444614E7FFF7C3FC444610E707F0CC
:105768007F0303EB83039C00103434440434D9E7EB
:1057780039463046FBF79CFC10B101232360D6E77D
:1057880000232360D3E70024FAE60446F8E6D0B104
:1057980070B50D4616460446FFF784FC431C5B00B3
:1057A8009BB233802B7003236B70022307E0EA540B
:1057B80001345A1CD2B20021A9540233DBB2227838
:1057C800002AF4D170BD704708B513460222C0F80C
:1057D80094228361C3610A460021FBF7C9FC0020BB
:1057E80008BD08B513460A460021FBF7C1FC002096
:1057F80008BD08B513460322C0F89422C0F85831F2
:10580800C0F85C310A460021FBF7BAFC002008BD4D
:1058180008B513460A460021FBF7B2FC002008BD74
:1058280008B50422C0F8942200231A461946FBF74B
:105838009FFC002008BD08B50522C0F8942200236B
:105848001A461946FBF79CFC002008BD10B5D0F895
:10585800D43203F1B00250F822408CB100EB820040
:1058680043687BB194F80002FF280DD09B6894F838
:10587800012221469847FF2384F80032002010BDFA
:105888000320FCE70020FAE70020F8E70A2303805A
:1058980000487047EC000020F8B506460F4F8221FB
:1058A8003846FFF7E0FB054601213846FFF7DBFBEA
:1058B800044681213846FFF7D6FB0DB11022AA71A4
:1058C8001CB1402222710022627118B1402202717B
:1058D80000224271432333800048F8BDA80000200D
:1058E800F8B506460F4F82213846FFF7BCFB054640
:1058F80001213846FFF7B7FB044681213846FFF7F8
:10590800B2FB0DB11022AA711CB1402222710022F3
:10591800627118B140220271002242714323338020
:105928000048F8BDA8000020F8B506460F4F8221B0
:105938003846FFF798FB054601213846FFF793FBE9
:10594800044681213846FFF78EFB0DB11022AA715B
:105958001CB1002222710222627118B10022027168
:1059680002224271432333800048F8BDA80000207A
:1059780038B5D0F8D432B03350F8235095B1044636
:10598800FBF7ADFBC5F80C02D4F8D432B03304EB06
:1059980083046368DB6805F50371D5F8040298474A
:1059A800002038BD0320FCE738B5D0F8C852D0F83D
:1059B800D432B03350F8234084B301F00F0303EB23
:1059C800830200EB820292694AB103EBC30C05EB38
:1059D8008C05AD6CB2FBF5FC05FB1C2292B10023D3
:1059E800C4F81432D0F8D432B03300EB83004368E3
:1059F8001B69ABB10A4604F50471D4F8080298474C
:105A0800002038BD03EB830300EB830300249C6173
:105A180023462246FBF7ACFB2046F2E70320F0E7DB
:105A28000020EEE7F0B583B0D0F8D43203F1B0022D
:105A380050F8227000228DF80720ADF80420002FBE
:105A48007BD004460D46097811F0600634D0202E2C
:105A58006CD1EA882AB311F0800F07D16B7887F8E8
:105A68000032EA883F2A13D8D2B212E0B03300EBF2
:105A780083035B689B68394668789847EA88072AF1
:105A880028BF072239462046FFF79EFE002651E030
:105A9800402287F8012239462046FFF7AAFE002651
:105AA80048E0B03300EB830463689B680022294612
:105AB8006878984700263DE06F780B2F31D8DFE8EB
:105AC80007F006393030303030303030162690F854
